{
  "contractName": "gambling0",
  "abi": [
    {
      "inputs": [],
      "payable": false,
      "stateMutability": "nonpayable",
      "type": "constructor"
    },
    {
      "anonymous": false,
      "inputs": [
        {
          "indexed": false,
          "internalType": "address",
          "name": "",
          "type": "address"
        },
        {
          "indexed": false,
          "internalType": "uint256",
          "name": "",
          "type": "uint256"
        }
      ],
      "name": "LogUint",
      "type": "event"
    },
    {
      "constant": true,
      "inputs": [
        {
          "internalType": "uint256",
          "name": "",
          "type": "uint256"
        },
        {
          "internalType": "uint256",
          "name": "",
          "type": "uint256"
        }
      ],
      "name": "list",
      "outputs": [
        {
          "internalType": "address payable",
          "name": "",
          "type": "address"
        }
      ],
      "payable": false,
      "stateMutability": "view",
      "type": "function"
    },
    {
      "constant": false,
      "inputs": [
        {
          "internalType": "uint256",
          "name": "num",
          "type": "uint256"
        }
      ],
      "name": "bet",
      "outputs": [],
      "payable": true,
      "stateMutability": "payable",
      "type": "function"
    },
    {
      "constant": false,
      "inputs": [],
      "name": "endd",
      "outputs": [],
      "payable": false,
      "stateMutability": "nonpayable",
      "type": "function"
    },
    {
      "constant": true,
      "inputs": [],
      "name": "getwin",
      "outputs": [
        {
          "internalType": "uint256",
          "name": "",
          "type": "uint256"
        }
      ],
      "payable": false,
      "stateMutability": "view",
      "type": "function"
    },
    {
      "constant": false,
      "inputs": [],
      "name": "des",
      "outputs": [],
      "payable": false,
      "stateMutability": "nonpayable",
      "type": "function"
    },
    {
      "constant": true,
      "inputs": [],
      "name": "getMoneyNum",
      "outputs": [
        {
          "internalType": "uint256",
          "name": "",
          "type": "uint256"
        }
      ],
      "payable": false,
      "stateMutability": "view",
      "type": "function"
    },
    {
      "constant": true,
      "inputs": [
        {
          "internalType": "uint256",
          "name": "key",
          "type": "uint256"
        }
      ],
      "name": "getMap",
      "outputs": [
        {
          "internalType": "address payable[]",
          "name": "",
          "type": "address[]"
        }
      ],
      "payable": false,
      "stateMutability": "view",
      "type": "function"
    }
  ],
  "bytecode": "0x6080604052670de0b6b3a7640000600055600a60025560006003556000600460006101000a81548160ff021916908315150217905550600060055534801561004657600080fd5b5033600160006101000a81548173ffffffffffffffffffffffffffffffffffffffff021916908373ffffffffffffffffffffffffffffffffffffffff16021790555061078d806100976000396000f3fe6080604052600436106100705760003560e01c80637365870b1161004e5780637365870b146101a1578063a14051e8146101cf578063a9a3424b146101e6578063c15f93b41461021157610070565b8063025799f01461007557806350fd7367146101055780635ad0f9221461018a575b600080fd5b34801561008157600080fd5b506100ae6004803603602081101561009857600080fd5b810190808035906020019092919050505061023c565b6040518080602001828103825283818151815260200191508051906020019060200280838360005b838110156100f15780820151818401526020810190506100d6565b505050509050019250505060405180910390f35b34801561011157600080fd5b506101486004803603604081101561012857600080fd5b8101908080359060200190929190803590602001909291905050506102dd565b604051808273ffffffffffffffffffffffffffffffffffffffff1673ffffffffffffffffffffffffffffffffffffffff16815260200191505060405180910390f35b34801561019657600080fd5b5061019f610328565b005b6101cd600480360360208110156101b757600080fd5b81019080803590602001909291905050506103bd565b005b3480156101db57600080fd5b506101e46104f9565b005b3480156101f257600080fd5b506101fb610744565b6040518082815260200191505060405180910390f35b34801561021d57600080fd5b5061022661074e565b6040518082815260200191505060405180910390f35b6060600660008381526020019081526020016000208054806020026020016040519081016040528092919081815260200182805480156102d157602002820191906000526020600020905b8160009054906101000a900473ffffffffffffffffffffffffffffffffffffffff1673ffffffffffffffffffffffffffffffffffffffff1681526020019060010190808311610287575b50505050509050919050565b600660205281600052604060002081815481106102f657fe5b906000526020600020016000915091509054906101000a900473ffffffffffffffffffffffffffffffffffffffff1681565b600160009054906101000a900473ffffffffffffffffffffffffffffffffffffffff1673ffffffffffffffffffffffffffffffffffffffff163373ffffffffffffffffffffffffffffffffffffffff161461038257600080fd5b600160009054906101000a900473ffffffffffffffffffffffffffffffffffffffff1673ffffffffffffffffffffffffffffffffffffffff16ff5b60001515600460009054906101000a900460ff161515146103dd57600080fd5b6000543410156103ec57600080fd5b6006600060025483816103fb57fe5b0681526020019081526020016000203390806001815401808255809150509060018203906000526020600020016000909192909190916101000a81548173ffffffffffffffffffffffffffffffffffffffff021916908373ffffffffffffffffffffffffffffffffffffffff160217905550507fb0f5ae0b02921dcb559e7872caa956b9a67801b0614096a863e6e9b5e5c415b133600254838161049b57fe5b06604051808373ffffffffffffffffffffffffffffffffffffffff1673ffffffffffffffffffffffffffffffffffffffff1681526020018281526020019250505060405180910390a160005460036000828254019250508190555050565b600160009054906101000a900473ffffffffffffffffffffffffffffffffffffffff1673ffffffffffffffffffffffffffffffffffffffff163373ffffffffffffffffffffffffffffffffffffffff161461055357600080fd5b6001600460006101000a81548160ff02191690831515021790555060004241600160009054906101000a900473ffffffffffffffffffffffffffffffffffffffff16604051602001808481526020018373ffffffffffffffffffffffffffffffffffffffff1673ffffffffffffffffffffffffffffffffffffffff1660601b81526014018273ffffffffffffffffffffffffffffffffffffffff1673ffffffffffffffffffffffffffffffffffffffff1660601b815260140193505050506040516020818303038152906040528051906020012090506002548160001c8161063757fe5b0660058190555060008090505b6006600060055481526020019081526020016000208054905081101561072557600660006005548152602001908152602001600020818154811061068457fe5b9060005260206000200160009054906101000a900473ffffffffffffffffffffffffffffffffffffffff1673ffffffffffffffffffffffffffffffffffffffff166108fc60066000600554815260200190815260200160002080549050600354816106eb57fe5b049081150290604051600060405180830381858888f19350505050158015610717573d6000803e3d6000fd5b508080600101915050610644565b506000600460006101000a81548160ff02191690831515021790555050565b6000600354905090565b600060055490509056fea265627a7a7231582091d9052cd3350f8df9fbd2fea685c58f7fbbcedb7fd255943b5545dd76f4002b64736f6c63430005100032",
  "source": "pragma solidity ^0.5.16;\n\ncontract gambling0 {\n    uint lottery = 1 ether;\n    address payable creater;\n    uint maxRange = 10;\n    uint pool = 0;\n    bool lock = false;\n    uint win = 0;\n    mapping(uint => address payable[]) public list;\n\n\n    constructor() public {\n        creater = msg.sender;\n    }\n\n    event LogUint(address, uint);\n//    function log(address  s , uint x) internal {\n//        emit LogUint(s, x);\n//    }\n\n    modifier unlock(){\n        require(lock == false);\n        _;\n    }\n\n    function bet(uint num) public payable unlock {\n        require(msg.value >= lottery);\n        list[num % maxRange].push(msg.sender);\n        emit LogUint(msg.sender,num % maxRange);\n        pool += lottery;\n    }\n\n\n    modifier onlyCreater() {\n        require(msg.sender == creater);\n        _;\n    }\n\n    /*\n    function __callback(bytes32 _queryId, string _result, bytes _proof) {\n        require(msg.sender != oraclize_cbAddress());\n        if (oraclize_randomDS_proofVerify__returnCode(_queryId, _result, _proof) != 0) {\n        }\n        else {\n            uint win = uint(keccak256(_result)) % maxRange; // this is an efficient way to get the uint out in the [0, maxRange-1] range\n            emit newRandomNumber_uint(win); // this is the resulting random number (uint)\n\n            for(uint i = 0; i < list[win].length; i ++) {\n                list[win][i].transfer(address(this).balance / list[win].length);\n            }\n            selfdestruct(creater);\n        }\n\n    }\n    */\n\n\n    function endd() public onlyCreater {\n        lock = true;\n        //        uint N = 7; // number of random bytes we want the datasource to return\n        //        uint delay = 20; // number of seconds to wait before the execution takes place\n        //        uint callbackGas = 200000; // amount of gas we want Oraclize to set for the callback function\n        //bytes32 queryId = oraclize_newRandomDSQuery(delay, N, callbackGas);\n        bytes32 source = keccak256(abi.encodePacked(now, block.coinbase, creater));\n//        bytes32 source = keccak256(abi.encodePacked(block.coinbase));\n        win = uint(source) % maxRange; // this is an efficient way to get the uint out in the [0, maxRange-1] range\n        for(uint i = 0; i < list[win].length; i ++) {\n            list[win][i].transfer(pool/list[win].length);\n        }\n\n//        creater.transfer(u);\n//        for (uint i = 0; i < list[win].length; i++){\n//\n//        }\n//        send();\n        lock = false;\n//        pool = 0;\n        //require(lock==false,\"pass\");\n\n    }\n\n    function getwin() public view returns(uint) {\n        return win;\n    }\n\n    function des() public onlyCreater {\n        selfdestruct(creater);\n    }\n\n    function getMoneyNum() public view returns(uint) {\n        return pool;\n    }\n\n    function getMap(uint key) public view returns(address payable[] memory){\n        return list[key];\n    }\n\n}\n",
  "sourcePath": "/Users/kirito/Desktop/gambling/contracts/gambling0.sol",
  "compiler": {
    "name": "solc",
    "version": "0.5.16+commit.9c3226ce.Emscripten.clang"
  },
  "schemaVersion": "3.0.23",
  "updatedAt": "2020-04-22T04:40:53.253Z",
  "networkType": "ethereum",
  "devdoc": {
    "methods": {}
  },
  "userdoc": {
    "methods": {}
  }
}